{
  "address": "0x884feE4257b25C30b0f035B240d0a1E9ac2A4685",
  "abi": [
    {
      "anonymous": false,
      "inputs": [
        {
          "indexed": true,
          "internalType": "address",
          "name": "owner",
          "type": "address"
        },
        {
          "indexed": true,
          "internalType": "address",
          "name": "approved",
          "type": "address"
        },
        {
          "indexed": true,
          "internalType": "uint256",
          "name": "tokenId",
          "type": "uint256"
        }
      ],
      "name": "Approval",
      "type": "event"
    },
    {
      "anonymous": false,
      "inputs": [
        {
          "indexed": true,
          "internalType": "address",
          "name": "owner",
          "type": "address"
        },
        {
          "indexed": true,
          "internalType": "address",
          "name": "operator",
          "type": "address"
        },
        {
          "indexed": false,
          "internalType": "bool",
          "name": "approved",
          "type": "bool"
        }
      ],
      "name": "ApprovalForAll",
      "type": "event"
    },
    {
      "anonymous": false,
      "inputs": [
        {
          "indexed": false,
          "internalType": "uint8",
          "name": "version",
          "type": "uint8"
        }
      ],
      "name": "Initialized",
      "type": "event"
    },
    {
      "anonymous": false,
      "inputs": [
        {
          "indexed": true,
          "internalType": "address",
          "name": "previousOwner",
          "type": "address"
        },
        {
          "indexed": true,
          "internalType": "address",
          "name": "newOwner",
          "type": "address"
        }
      ],
      "name": "OwnershipTransferred",
      "type": "event"
    },
    {
      "anonymous": false,
      "inputs": [
        {
          "indexed": false,
          "internalType": "address",
          "name": "newSigner",
          "type": "address"
        }
      ],
      "name": "SignerAdded",
      "type": "event"
    },
    {
      "anonymous": false,
      "inputs": [
        {
          "indexed": false,
          "internalType": "address",
          "name": "oldSigner",
          "type": "address"
        }
      ],
      "name": "SignerRemoved",
      "type": "event"
    },
    {
      "anonymous": false,
      "inputs": [
        {
          "indexed": true,
          "internalType": "address",
          "name": "from",
          "type": "address"
        },
        {
          "indexed": true,
          "internalType": "address",
          "name": "to",
          "type": "address"
        },
        {
          "indexed": true,
          "internalType": "uint256",
          "name": "tokenId",
          "type": "uint256"
        }
      ],
      "name": "Transfer",
      "type": "event"
    },
    {
      "inputs": [],
      "name": "EIP712_DOMAIN_TYPEHASH",
      "outputs": [
        {
          "internalType": "bytes32",
          "name": "",
          "type": "bytes32"
        }
      ],
      "stateMutability": "view",
      "type": "function"
    },
    {
      "inputs": [],
      "name": "HASHED_NAME",
      "outputs": [
        {
          "internalType": "bytes32",
          "name": "",
          "type": "bytes32"
        }
      ],
      "stateMutability": "view",
      "type": "function"
    },
    {
      "inputs": [],
      "name": "HASHED_VERSION",
      "outputs": [
        {
          "internalType": "bytes32",
          "name": "",
          "type": "bytes32"
        }
      ],
      "stateMutability": "view",
      "type": "function"
    },
    {
      "inputs": [],
      "name": "MINT_REQUEST_TYPEHASH",
      "outputs": [
        {
          "internalType": "bytes32",
          "name": "",
          "type": "bytes32"
        }
      ],
      "stateMutability": "view",
      "type": "function"
    },
    {
      "inputs": [
        {
          "internalType": "address",
          "name": "_user",
          "type": "address"
        },
        {
          "internalType": "uint256",
          "name": "_id",
          "type": "uint256"
        },
        {
          "internalType": "uint256",
          "name": "_validUntil",
          "type": "uint256"
        },
        {
          "internalType": "bytes",
          "name": "_signature",
          "type": "bytes"
        }
      ],
      "name": "_checkEIP712Signature",
      "outputs": [],
      "stateMutability": "view",
      "type": "function"
    },
    {
      "inputs": [
        {
          "internalType": "address",
          "name": "_signer",
          "type": "address"
        }
      ],
      "name": "addSigner",
      "outputs": [],
      "stateMutability": "nonpayable",
      "type": "function"
    },
    {
      "inputs": [
        {
          "internalType": "address",
          "name": "_spender",
          "type": "address"
        },
        {
          "internalType": "uint256",
          "name": "_tokenId",
          "type": "uint256"
        }
      ],
      "name": "approve",
      "outputs": [],
      "stateMutability": "nonpayable",
      "type": "function"
    },
    {
      "inputs": [
        {
          "internalType": "address",
          "name": "",
          "type": "address"
        }
      ],
      "name": "balanceOf",
      "outputs": [
        {
          "internalType": "uint256",
          "name": "",
          "type": "uint256"
        }
      ],
      "stateMutability": "view",
      "type": "function"
    },
    {
      "inputs": [
        {
          "internalType": "uint256",
          "name": "",
          "type": "uint256"
        }
      ],
      "name": "getApproved",
      "outputs": [
        {
          "internalType": "address",
          "name": "",
          "type": "address"
        }
      ],
      "stateMutability": "view",
      "type": "function"
    },
    {
      "inputs": [],
      "name": "getDomainSeparatorV4",
      "outputs": [
        {
          "internalType": "bytes32",
          "name": "domainSeparator",
          "type": "bytes32"
        }
      ],
      "stateMutability": "view",
      "type": "function"
    },
    {
      "inputs": [
        {
          "components": [
            {
              "internalType": "address",
              "name": "user",
              "type": "address"
            },
            {
              "internalType": "uint256",
              "name": "id",
              "type": "uint256"
            },
            {
              "internalType": "uint256",
              "name": "validUntil",
              "type": "uint256"
            }
          ],
          "internalType": "struct EIP712SigMint.MintRequest",
          "name": "_mintRequest",
          "type": "tuple"
        }
      ],
      "name": "getStructHash",
      "outputs": [
        {
          "internalType": "bytes32",
          "name": "structHash",
          "type": "bytes32"
        }
      ],
      "stateMutability": "pure",
      "type": "function"
    },
    {
      "inputs": [
        {
          "internalType": "string",
          "name": "_name",
          "type": "string"
        },
        {
          "internalType": "string",
          "name": "_symbol",
          "type": "string"
        }
      ],
      "name": "initialize",
      "outputs": [],
      "stateMutability": "nonpayable",
      "type": "function"
    },
    {
      "inputs": [
        {
          "internalType": "string",
          "name": "_name",
          "type": "string"
        },
        {
          "internalType": "string",
          "name": "_symbol",
          "type": "string"
        }
      ],
      "name": "intialize",
      "outputs": [],
      "stateMutability": "nonpayable",
      "type": "function"
    },
    {
      "inputs": [
        {
          "internalType": "address",
          "name": "",
          "type": "address"
        },
        {
          "internalType": "address",
          "name": "",
          "type": "address"
        }
      ],
      "name": "isApprovedForAll",
      "outputs": [
        {
          "internalType": "bool",
          "name": "",
          "type": "bool"
        }
      ],
      "stateMutability": "view",
      "type": "function"
    },
    {
      "inputs": [
        {
          "internalType": "address",
          "name": "",
          "type": "address"
        }
      ],
      "name": "isValidSigner",
      "outputs": [
        {
          "internalType": "bool",
          "name": "",
          "type": "bool"
        }
      ],
      "stateMutability": "view",
      "type": "function"
    },
    {
      "inputs": [
        {
          "internalType": "address",
          "name": "user",
          "type": "address"
        },
        {
          "internalType": "uint256",
          "name": "id",
          "type": "uint256"
        },
        {
          "internalType": "uint256",
          "name": "validUntil",
          "type": "uint256"
        },
        {
          "internalType": "bytes",
          "name": "signature",
          "type": "bytes"
        }
      ],
      "name": "mint",
      "outputs": [],
      "stateMutability": "nonpayable",
      "type": "function"
    },
    {
      "inputs": [],
      "name": "name",
      "outputs": [
        {
          "internalType": "string",
          "name": "",
          "type": "string"
        }
      ],
      "stateMutability": "view",
      "type": "function"
    },
    {
      "inputs": [],
      "name": "owner",
      "outputs": [
        {
          "internalType": "address",
          "name": "",
          "type": "address"
        }
      ],
      "stateMutability": "view",
      "type": "function"
    },
    {
      "inputs": [
        {
          "internalType": "uint256",
          "name": "",
          "type": "uint256"
        }
      ],
      "name": "ownerOf",
      "outputs": [
        {
          "internalType": "address",
          "name": "",
          "type": "address"
        }
      ],
      "stateMutability": "view",
      "type": "function"
    },
    {
      "inputs": [
        {
          "internalType": "address",
          "name": "_signer",
          "type": "address"
        }
      ],
      "name": "removeSigner",
      "outputs": [],
      "stateMutability": "nonpayable",
      "type": "function"
    },
    {
      "inputs": [],
      "name": "renounceOwnership",
      "outputs": [],
      "stateMutability": "nonpayable",
      "type": "function"
    },
    {
      "inputs": [
        {
          "internalType": "address",
          "name": "from",
          "type": "address"
        },
        {
          "internalType": "address",
          "name": "to",
          "type": "address"
        },
        {
          "internalType": "uint256",
          "name": "id",
          "type": "uint256"
        }
      ],
      "name": "safeTransferFrom",
      "outputs": [],
      "stateMutability": "nonpayable",
      "type": "function"
    },
    {
      "inputs": [
        {
          "internalType": "address",
          "name": "from",
          "type": "address"
        },
        {
          "internalType": "address",
          "name": "to",
          "type": "address"
        },
        {
          "internalType": "uint256",
          "name": "id",
          "type": "uint256"
        },
        {
          "internalType": "bytes",
          "name": "data",
          "type": "bytes"
        }
      ],
      "name": "safeTransferFrom",
      "outputs": [],
      "stateMutability": "nonpayable",
      "type": "function"
    },
    {
      "inputs": [
        {
          "internalType": "address",
          "name": "_operator",
          "type": "address"
        },
        {
          "internalType": "bool",
          "name": "_approved",
          "type": "bool"
        }
      ],
      "name": "setApprovalForAll",
      "outputs": [],
      "stateMutability": "nonpayable",
      "type": "function"
    },
    {
      "inputs": [
        {
          "internalType": "bytes4",
          "name": "interfaceId",
          "type": "bytes4"
        }
      ],
      "name": "supportsInterface",
      "outputs": [
        {
          "internalType": "bool",
          "name": "",
          "type": "bool"
        }
      ],
      "stateMutability": "view",
      "type": "function"
    },
    {
      "inputs": [],
      "name": "symbol",
      "outputs": [
        {
          "internalType": "string",
          "name": "",
          "type": "string"
        }
      ],
      "stateMutability": "view",
      "type": "function"
    },
    {
      "inputs": [
        {
          "internalType": "uint256",
          "name": "index",
          "type": "uint256"
        }
      ],
      "name": "tokenByIndex",
      "outputs": [
        {
          "internalType": "uint256",
          "name": "",
          "type": "uint256"
        }
      ],
      "stateMutability": "view",
      "type": "function"
    },
    {
      "inputs": [
        {
          "internalType": "address",
          "name": "owner",
          "type": "address"
        },
        {
          "internalType": "uint256",
          "name": "index",
          "type": "uint256"
        }
      ],
      "name": "tokenOfOwnerByIndex",
      "outputs": [
        {
          "internalType": "uint256",
          "name": "",
          "type": "uint256"
        }
      ],
      "stateMutability": "view",
      "type": "function"
    },
    {
      "inputs": [],
      "name": "totalSupply",
      "outputs": [
        {
          "internalType": "uint256",
          "name": "",
          "type": "uint256"
        }
      ],
      "stateMutability": "view",
      "type": "function"
    },
    {
      "inputs": [
        {
          "internalType": "address",
          "name": "from",
          "type": "address"
        },
        {
          "internalType": "address",
          "name": "to",
          "type": "address"
        },
        {
          "internalType": "uint256",
          "name": "id",
          "type": "uint256"
        }
      ],
      "name": "transferFrom",
      "outputs": [],
      "stateMutability": "nonpayable",
      "type": "function"
    },
    {
      "inputs": [
        {
          "internalType": "address",
          "name": "newOwner",
          "type": "address"
        }
      ],
      "name": "transferOwnership",
      "outputs": [],
      "stateMutability": "nonpayable",
      "type": "function"
    }
  ],
  "transactionHash": "0xd17995bd159d85152ffb54cd8f04b9e1474750fed65cc985845d29f8eafcad6c",
  "args": [],
  "numDeployments": 2,
  "solcInputHash": "0cf9ef7039c0261cbcf6086b7736b20c",
  "bytecode": "0x608060405234801561001057600080fd5b5061403c806100206000396000f3fe608060405234801561001057600080fd5b50600436106101e55760003560e01c80636352211e1161010f578063b88d4fde116100a2578063e985e9c511610071578063e985e9c51461057e578063eb12d61e146105ae578063f105a5f1146105ca578063f2fde38b146105e6576101e5565b8063b88d4fde146104e4578063c6d6287614610500578063c7977be714610530578063d5f505821461054e576101e5565b8063731133e9116100de578063731133e9146104705780638da5cb5b1461048c57806395d89b41146104aa578063a22cb465146104c8576101e5565b80636352211e146103e8578063644bb2f11461041857806370a0823114610436578063715018a614610466576101e5565b806318160ddd1161018757806342842e0e1161015657806342842e0e1461036457806343e2714b146103805780634cd88b761461039c5780634f6ccce7146103b8576101e5565b806318160ddd146102dc57806323b872dd146102fa5780632f745c591461031657806334fe6a6514610346576101e5565b8063095ea7b3116101c3578063095ea7b31461026857806309b46861146102845780630e316ab7146102a257806313c65a6e146102be576101e5565b806301ffc9a7146101ea57806306fdde031461021a578063081812fc14610238575b600080fd5b61020460048036038101906101ff91906129f6565b610602565b6040516102119190612a3e565b60405180910390f35b61022261067c565b60405161022f9190612ae9565b60405180910390f35b610252600480360381019061024d9190612b41565b61070a565b60405161025f9190612baf565b60405180910390f35b610282600480360381019061027d9190612bf6565b61073d565b005b61028c610926565b6040516102999190612c4f565b60405180910390f35b6102bc60048036038101906102b79190612c6a565b610966565b005b6102c661097a565b6040516102d39190612c4f565b60405180910390f35b6102e4610a48565b6040516102f19190612ca6565b60405180910390f35b610314600480360381019061030f9190612cc1565b610a55565b005b610330600480360381019061032b9190612bf6565b610e66565b60405161033d9190612ca6565b60405180910390f35b61034e610f42565b60405161035b9190612c4f565b60405180910390f35b61037e60048036038101906103799190612cc1565b610f82565b005b61039a60048036038101906103959190612d79565b6110ba565b005b6103b660048036038101906103b19190612f31565b611249565b005b6103d260048036038101906103cd9190612b41565b611393565b6040516103df9190612ca6565b60405180910390f35b61040260048036038101906103fd9190612b41565b611404565b60405161040f9190612baf565b60405180910390f35b610420611437565b60405161042d9190612c4f565b60405180910390f35b610450600480360381019061044b9190612c6a565b61145b565b60405161045d9190612ca6565b60405180910390f35b61046e611473565b005b61048a60048036038101906104859190612d79565b611487565b005b6104946114bf565b6040516104a19190612baf565b60405180910390f35b6104b26114e9565b6040516104bf9190612ae9565b60405180910390f35b6104e260048036038101906104dd9190612fd5565b611577565b005b6104fe60048036038101906104f99190613015565b611674565b005b61051a60048036038101906105159190613106565b6117b2565b6040516105279190612c4f565b60405180910390f35b610538611814565b6040516105459190612c4f565b60405180910390f35b61056860048036038101906105639190612c6a565b611838565b6040516105759190612a3e565b60405180910390f35b61059860048036038101906105939190613133565b611858565b6040516105a59190612a3e565b60405180910390f35b6105c860048036038101906105c39190612c6a565b611887565b005b6105e460048036038101906105df9190612f31565b61189b565b005b61060060048036038101906105fb9190612c6a565b6119dd565b005b60007f780e9d63000000000000000000000000000000000000000000000000000000007bffffffffffffffffffffffffffffffffffffffffffffffffffffffff1916827bffffffffffffffffffffffffffffffffffffffffffffffffffffffff19161480610675575061067482611a60565b5b9050919050565b60018054610689906131a2565b80601f01602080910402602001604051908101604052809291908181526020018280546106b5906131a2565b80156107025780601f106106d757610100808354040283529160200191610702565b820191906000526020600020905b8154815290600101906020018083116106e557829003601f168201915b505050505081565b60056020528060005260406000206000915054906101000a900473ffffffffffffffffffffffffffffffffffffffff1681565b60006003600083815260200190815260200160002060009054906101000a900473ffffffffffffffffffffffffffffffffffffffff1690508073ffffffffffffffffffffffffffffffffffffffff163373ffffffffffffffffffffffffffffffffffffffff1614806108355750600660008273ffffffffffffffffffffffffffffffffffffffff1673ffffffffffffffffffffffffffffffffffffffff16815260200190815260200160002060003373ffffffffffffffffffffffffffffffffffffffff1673ffffffffffffffffffffffffffffffffffffffff16815260200190815260200160002060009054906101000a900460ff165b610874576040517f08c379a000000000000000000000000000000000000000000000000000000000815260040161086b9061321f565b60405180910390fd5b826005600084815260200190815260200160002060006101000a81548173ffffffffffffffffffffffffffffffffffffffff021916908373ffffffffffffffffffffffffffffffffffffffff160217905550818373ffffffffffffffffffffffffffffffffffffffff168273ffffffffffffffffffffffffffffffffffffffff167f8c5be1e5ebec7d5bd14f71427d1e84f3dd0314c0f7b2291e5b200ac8c7c3b92560405160405180910390a4505050565b6040518060400160405280600381526020017f312e3000000000000000000000000000000000000000000000000000000000008152508051906020012081565b61096e611af2565b61097781611b70565b50565b60007f8b73c3c69bb8fe3d512ecc4cf759cc79239f7b179b0ffacaa9a75d522b39400f6040518060400160405280600881526020017f5765623347616d65000000000000000000000000000000000000000000000000815250805190602001206040518060400160405280600381526020017f312e300000000000000000000000000000000000000000000000000000000000815250805190602001204630604051602001610a2d95949392919061323f565b60405160208183030381529060405280519060200120905090565b6000600980549050905090565b610a60838383611c02565b6003600082815260200190815260200160002060009054906101000a900473ffffffffffffffffffffffffffffffffffffffff1673ffffffffffffffffffffffffffffffffffffffff168373ffffffffffffffffffffffffffffffffffffffff1614610b01576040517f08c379a0000000000000000000000000000000000000000000000000000000008152600401610af8906132de565b60405180910390fd5b600073ffffffffffffffffffffffffffffffffffffffff168273ffffffffffffffffffffffffffffffffffffffff1603610b70576040517f08c379a0000000000000000000000000000000000000000000000000000000008152600401610b679061334a565b60405180910390fd5b8273ffffffffffffffffffffffffffffffffffffffff163373ffffffffffffffffffffffffffffffffffffffff161480610c305750600660008473ffffffffffffffffffffffffffffffffffffffff1673ffffffffffffffffffffffffffffffffffffffff16815260200190815260200160002060003373ffffffffffffffffffffffffffffffffffffffff1673ffffffffffffffffffffffffffffffffffffffff16815260200190815260200160002060009054906101000a900460ff165b80610c9957506005600082815260200190815260200160002060009054906101000a900473ffffffffffffffffffffffffffffffffffffffff1673ffffffffffffffffffffffffffffffffffffffff163373ffffffffffffffffffffffffffffffffffffffff16145b610cd8576040517f08c379a0000000000000000000000000000000000000000000000000000000008152600401610ccf9061321f565b60405180910390fd5b600460008473ffffffffffffffffffffffffffffffffffffffff1673ffffffffffffffffffffffffffffffffffffffff168152602001908152602001600020600081546001900391905081905550600460008373ffffffffffffffffffffffffffffffffffffffff1673ffffffffffffffffffffffffffffffffffffffff1681526020019081526020016000206000815460010191905081905550816003600083815260200190815260200160002060006101000a81548173ffffffffffffffffffffffffffffffffffffffff021916908373ffffffffffffffffffffffffffffffffffffffff1602179055506005600082815260200190815260200160002060006101000a81549073ffffffffffffffffffffffffffffffffffffffff0219169055808273ffffffffffffffffffffffffffffffffffffffff168473ffffffffffffffffffffffffffffffffffffffff167fddf252ad1be2c89b69c2b068fc378daa952ba7f163c4a11628f55a4df523b3ef60405160405180910390a4610e61838383611d14565b505050565b6000600460008473ffffffffffffffffffffffffffffffffffffffff1673ffffffffffffffffffffffffffffffffffffffff168152602001908152602001600020548210610ee9576040517f08c379a0000000000000000000000000000000000000000000000000000000008152600401610ee0906133dc565b60405180910390fd5b600760008473ffffffffffffffffffffffffffffffffffffffff1673ffffffffffffffffffffffffffffffffffffffff168152602001908152602001600020600083815260200190815260200160002054905092915050565b6040518060400160405280600881526020017f5765623347616d650000000000000000000000000000000000000000000000008152508051906020012081565b610f8d838383610a55565b60008273ffffffffffffffffffffffffffffffffffffffff163b1480611076575063150b7a0260e01b7bffffffffffffffffffffffffffffffffffffffffffffffffffffffff19168273ffffffffffffffffffffffffffffffffffffffff1663150b7a023386856040518463ffffffff1660e01b815260040161101293929190613433565b6020604051808303816000875af1158015611031573d6000803e3d6000fd5b505050506040513d601f19601f820116820180604052508101906110559190613492565b7bffffffffffffffffffffffffffffffffffffffffffffffffffffffff1916145b6110b5576040517f08c379a00000000000000000000000000000000000000000000000000000000081526004016110ac9061350b565b60405180910390fd5b505050565b600060405180606001604052808773ffffffffffffffffffffffffffffffffffffffff16815260200186815260200185815250905060006111136110fd836117b2565b61110561097a565b611d1990919063ffffffff16565b9050600061116e85858080601f016020809104026020016040519081016040528093929190818152602001838380828437600081840152601f19601f8201169050808301925050505050505083611d5a90919063ffffffff16565b9050603960008273ffffffffffffffffffffffffffffffffffffffff1673ffffffffffffffffffffffffffffffffffffffff16815260200190815260200160002060009054906101000a900460ff166111fc576040517f08c379a00000000000000000000000000000000000000000000000000000000081526004016111f39061359d565b60405180910390fd5b8542111561123f576040517f08c379a00000000000000000000000000000000000000000000000000000000081526004016112369061362f565b60405180910390fd5b5050505050505050565b60008060019054906101000a900460ff1615905080801561127a5750600160008054906101000a900460ff1660ff16105b806112a7575061128930611d81565b1580156112a65750600160008054906101000a900460ff1660ff16145b5b6112e6576040517f08c379a00000000000000000000000000000000000000000000000000000000081526004016112dd906136c1565b60405180910390fd5b60016000806101000a81548160ff021916908360ff1602179055508015611323576001600060016101000a81548160ff0219169083151502179055505b61132b611da4565b6113358383611dfd565b801561138e5760008060016101000a81548160ff0219169083151502179055507f7f26b83ff96e1f2b6a682f133852f6798a09c465da95921460cefb384740249860016040516113859190613733565b60405180910390a15b505050565b600061139d610a48565b82106113de576040517f08c379a00000000000000000000000000000000000000000000000000000000081526004016113d5906137c0565b60405180910390fd5b600982815481106113f2576113f16137e0565b5b90600052602060002001549050919050565b60036020528060005260406000206000915054906101000a900473ffffffffffffffffffffffffffffffffffffffff1681565b7f95223631a5bcb1702dd685baf770902fd39b576c8904aef9670546d50806f1ce81565b60046020528060005260406000206000915090505481565b61147b611af2565b6114856000611e70565b565b61149485858585856110ba565b6114a085609e54611f36565b609e60008154809291906114b39061383e565b91905055505050505050565b6000606c60009054906101000a900473ffffffffffffffffffffffffffffffffffffffff16905090565b600280546114f6906131a2565b80601f0160208091040260200160405190810160405280929190818152602001828054611522906131a2565b801561156f5780601f106115445761010080835404028352916020019161156f565b820191906000526020600020905b81548152906001019060200180831161155257829003601f168201915b505050505081565b80600660003373ffffffffffffffffffffffffffffffffffffffff1673ffffffffffffffffffffffffffffffffffffffff16815260200190815260200160002060008473ffffffffffffffffffffffffffffffffffffffff1673ffffffffffffffffffffffffffffffffffffffff16815260200190815260200160002060006101000a81548160ff0219169083151502179055508173ffffffffffffffffffffffffffffffffffffffff163373ffffffffffffffffffffffffffffffffffffffff167f17307eab39ab6107e8899845ad3d59bd9653f200f220920489ca2b5937696c31836040516116689190612a3e565b60405180910390a35050565b61167f858585610a55565b60008473ffffffffffffffffffffffffffffffffffffffff163b148061176c575063150b7a0260e01b7bffffffffffffffffffffffffffffffffffffffffffffffffffffffff19168473ffffffffffffffffffffffffffffffffffffffff1663150b7a0233888787876040518663ffffffff1660e01b81526004016117089594939291906138b3565b6020604051808303816000875af1158015611727573d6000803e3d6000fd5b505050506040513d601f19601f8201168201806040525081019061174b9190613492565b7bffffffffffffffffffffffffffffffffffffffffffffffffffffffff1916145b6117ab576040517f08c379a00000000000000000000000000000000000000000000000000000000081526004016117a29061350b565b60405180910390fd5b5050505050565b60007f95223631a5bcb1702dd685baf770902fd39b576c8904aef9670546d50806f1ce8260000151836020015184604001516040516020016117f79493929190613901565b604051602081830303815290604052805190602001209050919050565b7f8b73c3c69bb8fe3d512ecc4cf759cc79239f7b179b0ffacaa9a75d522b39400f81565b60396020528060005260406000206000915054906101000a900460ff1681565b60066020528160005260406000206020528060005260406000206000915091509054906101000a900460ff1681565b61188f611af2565b6118988161206d565b50565b60008060019054906101000a900460ff161590508080156118cc5750600160008054906101000a900460ff1660ff16105b806118f957506118db30611d81565b1580156118f85750600160008054906101000a900460ff1660ff16145b5b611938576040517f08c379a000000000000000000000000000000000000000000000000000000000815260040161192f906136c1565b60405180910390fd5b60016000806101000a81548160ff021916908360ff1602179055508015611975576001600060016101000a81548160ff0219169083151502179055505b61197f8383611dfd565b80156119d85760008060016101000a81548160ff0219169083151502179055507f7f26b83ff96e1f2b6a682f133852f6798a09c465da95921460cefb384740249860016040516119cf9190613733565b60405180910390a15b505050565b6119e5611af2565b600073ffffffffffffffffffffffffffffffffffffffff168173ffffffffffffffffffffffffffffffffffffffff1603611a54576040517f08c379a0000000000000000000000000000000000000000000000000000000008152600401611a4b906139b8565b60405180910390fd5b611a5d81611e70565b50565b60006301ffc9a760e01b827bffffffffffffffffffffffffffffffffffffffffffffffffffffffff19161480611abb57506380ac58cd60e01b827bffffffffffffffffffffffffffffffffffffffffffffffffffffffff1916145b80611aeb5750635b5e139f60e01b827bffffffffffffffffffffffffffffffffffffffffffffffffffffffff1916145b9050919050565b611afa6120ff565b73ffffffffffffffffffffffffffffffffffffffff16611b186114bf565b73ffffffffffffffffffffffffffffffffffffffff1614611b6e576040517f08c379a0000000000000000000000000000000000000000000000000000000008152600401611b6590613a24565b60405180910390fd5b565b6000603960008373ffffffffffffffffffffffffffffffffffffffff1673ffffffffffffffffffffffffffffffffffffffff16815260200190815260200160002060006101000a81548160ff0219169083151502179055507f3525e22824a8a7df2c9a6029941c824cf95b6447f1e13d5128fd3826d35afe8b81604051611bf79190612baf565b60405180910390a150565b611c0d838383612107565b600073ffffffffffffffffffffffffffffffffffffffff168373ffffffffffffffffffffffffffffffffffffffff1603611c4f57611c4a8161210c565b611c8e565b8173ffffffffffffffffffffffffffffffffffffffff168373ffffffffffffffffffffffffffffffffffffffff1614611c8d57611c8c8382612155565b5b5b600073ffffffffffffffffffffffffffffffffffffffff168273ffffffffffffffffffffffffffffffffffffffff1603611cd057611ccb816122f9565b611d0f565b8273ffffffffffffffffffffffffffffffffffffffff168273ffffffffffffffffffffffffffffffffffffffff1614611d0e57611d0d82826123ca565b5b5b505050565b505050565b60006040517f190100000000000000000000000000000000000000000000000000000000000081528360028201528260228201526042812091505092915050565b6000806000611d698585612480565b91509150611d76816124d1565b819250505092915050565b6000808273ffffffffffffffffffffffffffffffffffffffff163b119050919050565b600060019054906101000a900460ff16611df3576040517f08c379a0000000000000000000000000000000000000000000000000000000008152600401611dea90613ab6565b60405180910390fd5b611dfb612637565b565b600060019054906101000a900460ff16611e4c576040517f08c379a0000000000000000000000000000000000000000000000000000000008152600401611e4390613ab6565b60405180910390fd5b8160019081611e5b9190613c78565b508060029081611e6b9190613c78565b505050565b6000606c60009054906101000a900473ffffffffffffffffffffffffffffffffffffffff16905081606c60006101000a81548173ffffffffffffffffffffffffffffffffffffffff021916908373ffffffffffffffffffffffffffffffffffffffff1602179055508173ffffffffffffffffffffffffffffffffffffffff168173ffffffffffffffffffffffffffffffffffffffff167f8be0079c531659141344cd1fd0a4f28419497f9722a3daafe3b4186f6b6457e060405160405180910390a35050565b611f408282612698565b60008273ffffffffffffffffffffffffffffffffffffffff163b148061202a575063150b7a0260e01b7bffffffffffffffffffffffffffffffffffffffffffffffffffffffff19168273ffffffffffffffffffffffffffffffffffffffff1663150b7a02336000856040518463ffffffff1660e01b8152600401611fc693929190613433565b6020604051808303816000875af1158015611fe5573d6000803e3d6000fd5b505050506040513d601f19601f820116820180604052508101906120099190613492565b7bffffffffffffffffffffffffffffffffffffffffffffffffffffffff1916145b612069576040517f08c379a00000000000000000000000000000000000000000000000000000000081526004016120609061350b565b60405180910390fd5b5050565b6001603960008373ffffffffffffffffffffffffffffffffffffffff1673ffffffffffffffffffffffffffffffffffffffff16815260200190815260200160002060006101000a81548160ff0219169083151502179055507f47d1c22a25bb3a5d4e481b9b1e6944c2eade3181a0a20b495ed61d35b5323f24816040516120f49190612baf565b60405180910390a150565b600033905090565b505050565b600980549050600a600083815260200190815260200160002081905550600981908060018154018082558091505060019003906000526020600020016000909190919091505550565b60006001600460008573ffffffffffffffffffffffffffffffffffffffff1673ffffffffffffffffffffffffffffffffffffffff168152602001908152602001600020546121a39190613d4a565b9050600060086000848152602001908152602001600020549050818114612288576000600760008673ffffffffffffffffffffffffffffffffffffffff1673ffffffffffffffffffffffffffffffffffffffff168152602001908152602001600020600084815260200190815260200160002054905080600760008773ffffffffffffffffffffffffffffffffffffffff1673ffffffffffffffffffffffffffffffffffffffff168152602001908152602001600020600084815260200190815260200160002081905550816008600083815260200190815260200160002081905550505b6008600084815260200190815260200160002060009055600760008573ffffffffffffffffffffffffffffffffffffffff1673ffffffffffffffffffffffffffffffffffffffff16815260200190815260200160002060008381526020019081526020016000206000905550505050565b6000600160098054905061230d9190613d4a565b90506000600a600084815260200190815260200160002054905060006009838154811061233d5761233c6137e0565b5b90600052602060002001549050806009838154811061235f5761235e6137e0565b5b906000526020600020018190555081600a600083815260200190815260200160002081905550600a60008581526020019081526020016000206000905560098054806123ae576123ad613d7e565b5b6001900381819060005260206000200160009055905550505050565b6000600460008473ffffffffffffffffffffffffffffffffffffffff1673ffffffffffffffffffffffffffffffffffffffff16815260200190815260200160002054905081600760008573ffffffffffffffffffffffffffffffffffffffff1673ffffffffffffffffffffffffffffffffffffffff168152602001908152602001600020600083815260200190815260200160002081905550806008600084815260200190815260200160002081905550505050565b60008060418351036124c15760008060006020860151925060408601519150606086015160001a90506124b5878285856128a8565b945094505050506124ca565b60006002915091505b9250929050565b600060048111156124e5576124e4613dad565b5b8160048111156124f8576124f7613dad565b5b0315612634576001600481111561251257612511613dad565b5b81600481111561252557612524613dad565b5b03612565576040517f08c379a000000000000000000000000000000000000000000000000000000000815260040161255c90613e28565b60405180910390fd5b6002600481111561257957612578613dad565b5b81600481111561258c5761258b613dad565b5b036125cc576040517f08c379a00000000000000000000000000000000000000000000000000000000081526004016125c390613e94565b60405180910390fd5b600360048111156125e0576125df613dad565b5b8160048111156125f3576125f2613dad565b5b03612633576040517f08c379a000000000000000000000000000000000000000000000000000000000815260040161262a90613f26565b60405180910390fd5b5b50565b600060019054906101000a900460ff16612686576040517f08c379a000000000000000000000000000000000000000000000000000000000815260040161267d90613ab6565b60405180910390fd5b6126966126916120ff565b611e70565b565b600073ffffffffffffffffffffffffffffffffffffffff168273ffffffffffffffffffffffffffffffffffffffff1603612707576040517f08c379a00000000000000000000000000000000000000000000000000000000081526004016126fe9061334a565b60405180910390fd5b600073ffffffffffffffffffffffffffffffffffffffff166003600083815260200190815260200160002060009054906101000a900473ffffffffffffffffffffffffffffffffffffffff1673ffffffffffffffffffffffffffffffffffffffff16146127a9576040517f08c379a00000000000000000000000000000000000000000000000000000000081526004016127a090613f92565b60405180910390fd5b600460008373ffffffffffffffffffffffffffffffffffffffff1673ffffffffffffffffffffffffffffffffffffffff1681526020019081526020016000206000815460010191905081905550816003600083815260200190815260200160002060006101000a81548173ffffffffffffffffffffffffffffffffffffffff021916908373ffffffffffffffffffffffffffffffffffffffff160217905550808273ffffffffffffffffffffffffffffffffffffffff16600073ffffffffffffffffffffffffffffffffffffffff167fddf252ad1be2c89b69c2b068fc378daa952ba7f163c4a11628f55a4df523b3ef60405160405180910390a45050565b6000807f7fffffffffffffffffffffffffffffff5d576e7357a4501ddfe92f46681b20a08360001c11156128e3576000600391509150612981565b6000600187878787604051600081526020016040526040516129089493929190613fc1565b6020604051602081039080840390855afa15801561292a573d6000803e3d6000fd5b505050602060405103519050600073ffffffffffffffffffffffffffffffffffffffff168173ffffffffffffffffffffffffffffffffffffffff160361297857600060019250925050612981565b80600092509250505b94509492505050565b6000604051905090565b600080fd5b600080fd5b60007fffffffff0000000000000000000000000000000000000000000000000000000082169050919050565b6129d38161299e565b81146129de57600080fd5b50565b6000813590506129f0816129ca565b92915050565b600060208284031215612a0c57612a0b612994565b5b6000612a1a848285016129e1565b91505092915050565b60008115159050919050565b612a3881612a23565b82525050565b6000602082019050612a536000830184612a2f565b92915050565b600081519050919050565b600082825260208201905092915050565b60005b83811015612a93578082015181840152602081019050612a78565b60008484015250505050565b6000601f19601f8301169050919050565b6000612abb82612a59565b612ac58185612a64565b9350612ad5818560208601612a75565b612ade81612a9f565b840191505092915050565b60006020820190508181036000830152612b038184612ab0565b905092915050565b6000819050919050565b612b1e81612b0b565b8114612b2957600080fd5b50565b600081359050612b3b81612b15565b92915050565b600060208284031215612b5757612b56612994565b5b6000612b6584828501612b2c565b91505092915050565b600073ffffffffffffffffffffffffffffffffffffffff82169050919050565b6000612b9982612b6e565b9050919050565b612ba981612b8e565b82525050565b6000602082019050612bc46000830184612ba0565b92915050565b612bd381612b8e565b8114612bde57600080fd5b50565b600081359050612bf081612bca565b92915050565b60008060408385031215612c0d57612c0c612994565b5b6000612c1b85828601612be1565b9250506020612c2c85828601612b2c565b9150509250929050565b6000819050919050565b612c4981612c36565b82525050565b6000602082019050612c646000830184612c40565b92915050565b600060208284031215612c8057612c7f612994565b5b6000612c8e84828501612be1565b91505092915050565b612ca081612b0b565b82525050565b6000602082019050612cbb6000830184612c97565b92915050565b600080600060608486031215612cda57612cd9612994565b5b6000612ce886828701612be1565b9350506020612cf986828701612be1565b9250506040612d0a86828701612b2c565b9150509250925092565b600080fd5b600080fd5b600080fd5b60008083601f840112612d3957612d38612d14565b5b8235905067ffffffffffffffff811115612d5657612d55612d19565b5b602083019150836001820283011115612d7257612d71612d1e565b5b9250929050565b600080600080600060808688031215612d9557612d94612994565b5b6000612da388828901612be1565b9550506020612db488828901612b2c565b9450506040612dc588828901612b2c565b935050606086013567ffffffffffffffff811115612de657612de5612999565b5b612df288828901612d23565b92509250509295509295909350565b600080fd5b7f4e487b7100000000000000000000000000000000000000000000000000000000600052604160045260246000fd5b612e3e82612a9f565b810181811067ffffffffffffffff82111715612e5d57612e5c612e06565b5b80604052505050565b6000612e7061298a565b9050612e7c8282612e35565b919050565b600067ffffffffffffffff821115612e9c57612e9b612e06565b5b612ea582612a9f565b9050602081019050919050565b82818337600083830152505050565b6000612ed4612ecf84612e81565b612e66565b905082815260208101848484011115612ef057612eef612e01565b5b612efb848285612eb2565b509392505050565b600082601f830112612f1857612f17612d14565b5b8135612f28848260208601612ec1565b91505092915050565b60008060408385031215612f4857612f47612994565b5b600083013567ffffffffffffffff811115612f6657612f65612999565b5b612f7285828601612f03565b925050602083013567ffffffffffffffff811115612f9357612f92612999565b5b612f9f85828601612f03565b9150509250929050565b612fb281612a23565b8114612fbd57600080fd5b50565b600081359050612fcf81612fa9565b92915050565b60008060408385031215612fec57612feb612994565b5b6000612ffa85828601612be1565b925050602061300b85828601612fc0565b9150509250929050565b60008060008060006080868803121561303157613030612994565b5b600061303f88828901612be1565b955050602061305088828901612be1565b945050604061306188828901612b2c565b935050606086013567ffffffffffffffff81111561308257613081612999565b5b61308e88828901612d23565b92509250509295509295909350565b600080fd5b6000606082840312156130b8576130b761309d565b5b6130c26060612e66565b905060006130d284828501612be1565b60008301525060206130e684828501612b2c565b60208301525060406130fa84828501612b2c565b60408301525092915050565b60006060828403121561311c5761311b612994565b5b600061312a848285016130a2565b91505092915050565b6000806040838503121561314a57613149612994565b5b600061315885828601612be1565b925050602061316985828601612be1565b9150509250929050565b7f4e487b7100000000000000000000000000000000000000000000000000000000600052602260045260246000fd5b600060028204905060018216806131ba57607f821691505b6020821081036131cd576131cc613173565b5b50919050565b7f4e4f545f415554484f52495a4544000000000000000000000000000000000000600082015250565b6000613209600e83612a64565b9150613214826131d3565b602082019050919050565b60006020820190508181036000830152613238816131fc565b9050919050565b600060a0820190506132546000830188612c40565b6132616020830187612c40565b61326e6040830186612c40565b61327b6060830185612c97565b6132886080830184612ba0565b9695505050505050565b7f57524f4e475f46524f4d00000000000000000000000000000000000000000000600082015250565b60006132c8600a83612a64565b91506132d382613292565b602082019050919050565b600060208201905081810360008301526132f7816132bb565b9050919050565b7f494e56414c49445f524543495049454e54000000000000000000000000000000600082015250565b6000613334601183612a64565b915061333f826132fe565b602082019050919050565b6000602082019050818103600083015261336381613327565b9050919050565b7f455243373231456e756d657261626c653a206f776e657220696e646578206f7560008201527f74206f6620626f756e6473000000000000000000000000000000000000000000602082015250565b60006133c6602b83612a64565b91506133d18261336a565b604082019050919050565b600060208201905081810360008301526133f5816133b9565b9050919050565b600082825260208201905092915050565b50565b600061341d6000836133fc565b91506134288261340d565b600082019050919050565b60006080820190506134486000830186612ba0565b6134556020830185612ba0565b6134626040830184612c97565b818103606083015261347381613410565b9050949350505050565b60008151905061348c816129ca565b92915050565b6000602082840312156134a8576134a7612994565b5b60006134b68482850161347d565b91505092915050565b7f554e534146455f524543495049454e5400000000000000000000000000000000600082015250565b60006134f5601083612a64565b9150613500826134bf565b602082019050919050565b60006020820190508181036000830152613524816134e8565b9050919050565b7f416368696576656d656e7473466163746f72793a20496e76616c69642073696760008201527f6e65720000000000000000000000000000000000000000000000000000000000602082015250565b6000613587602383612a64565b91506135928261352b565b604082019050919050565b600060208201905081810360008301526135b68161357a565b9050919050565b7f416368696576656d656e7473466163746f72793a205369676e6174757265206560008201527f7870697265640000000000000000000000000000000000000000000000000000602082015250565b6000613619602683612a64565b9150613624826135bd565b604082019050919050565b600060208201905081810360008301526136488161360c565b9050919050565b7f496e697469616c697a61626c653a20636f6e747261637420697320616c72656160008201527f647920696e697469616c697a6564000000000000000000000000000000000000602082015250565b60006136ab602e83612a64565b91506136b68261364f565b604082019050919050565b600060208201905081810360008301526136da8161369e565b9050919050565b6000819050919050565b600060ff82169050919050565b6000819050919050565b600061371d613718613713846136e1565b6136f8565b6136eb565b9050919050565b61372d81613702565b82525050565b60006020820190506137486000830184613724565b92915050565b7f455243373231456e756d657261626c653a20676c6f62616c20696e646578206f60008201527f7574206f6620626f756e64730000000000000000000000000000000000000000602082015250565b60006137aa602c83612a64565b91506137b58261374e565b604082019050919050565b600060208201905081810360008301526137d98161379d565b9050919050565b7f4e487b7100000000000000000000000000000000000000000000000000000000600052603260045260246000fd5b7f4e487b7100000000000000000000000000000000000000000000000000000000600052601160045260246000fd5b600061384982612b0b565b91507fffffffffffffffffffffffffffffffffffffffffffffffffffffffffffffffff820361387b5761387a61380f565b5b600182019050919050565b600061389283856133fc565b935061389f838584612eb2565b6138a883612a9f565b840190509392505050565b60006080820190506138c86000830188612ba0565b6138d56020830187612ba0565b6138e26040830186612c97565b81810360608301526138f5818486613886565b90509695505050505050565b60006080820190506139166000830187612c40565b6139236020830186612ba0565b6139306040830185612c97565b61393d6060830184612c97565b95945050505050565b7f4f776e61626c653a206e6577206f776e657220697320746865207a65726f206160008201527f6464726573730000000000000000000000000000000000000000000000000000602082015250565b60006139a2602683612a64565b91506139ad82613946565b604082019050919050565b600060208201905081810360008301526139d181613995565b9050919050565b7f4f776e61626c653a2063616c6c6572206973206e6f7420746865206f776e6572600082015250565b6000613a0e602083612a64565b9150613a19826139d8565b602082019050919050565b60006020820190508181036000830152613a3d81613a01565b9050919050565b7f496e697469616c697a61626c653a20636f6e7472616374206973206e6f74206960008201527f6e697469616c697a696e67000000000000000000000000000000000000000000602082015250565b6000613aa0602b83612a64565b9150613aab82613a44565b604082019050919050565b60006020820190508181036000830152613acf81613a93565b9050919050565b60008190508160005260206000209050919050565b60006020601f8301049050919050565b600082821b905092915050565b600060088302613b387fffffffffffffffffffffffffffffffffffffffffffffffffffffffffffffffff82613afb565b613b428683613afb565b95508019841693508086168417925050509392505050565b6000613b75613b70613b6b84612b0b565b6136f8565b612b0b565b9050919050565b6000819050919050565b613b8f83613b5a565b613ba3613b9b82613b7c565b848454613b08565b825550505050565b600090565b613bb8613bab565b613bc3818484613b86565b505050565b5b81811015613be757613bdc600082613bb0565b600181019050613bc9565b5050565b601f821115613c2c57613bfd81613ad6565b613c0684613aeb565b81016020851015613c15578190505b613c29613c2185613aeb565b830182613bc8565b50505b505050565b600082821c905092915050565b6000613c4f60001984600802613c31565b1980831691505092915050565b6000613c688383613c3e565b9150826002028217905092915050565b613c8182612a59565b67ffffffffffffffff811115613c9a57613c99612e06565b5b613ca482546131a2565b613caf828285613beb565b600060209050601f831160018114613ce25760008415613cd0578287015190505b613cda8582613c5c565b865550613d42565b601f198416613cf086613ad6565b60005b82811015613d1857848901518255600182019150602085019450602081019050613cf3565b86831015613d355784890151613d31601f891682613c3e565b8355505b6001600288020188555050505b505050505050565b6000613d5582612b0b565b9150613d6083612b0b565b9250828203905081811115613d7857613d7761380f565b5b92915050565b7f4e487b7100000000000000000000000000000000000000000000000000000000600052603160045260246000fd5b7f4e487b7100000000000000000000000000000000000000000000000000000000600052602160045260246000fd5b7f45434453413a20696e76616c6964207369676e61747572650000000000000000600082015250565b6000613e12601883612a64565b9150613e1d82613ddc565b602082019050919050565b60006020820190508181036000830152613e4181613e05565b9050919050565b7f45434453413a20696e76616c6964207369676e6174757265206c656e67746800600082015250565b6000613e7e601f83612a64565b9150613e8982613e48565b602082019050919050565b60006020820190508181036000830152613ead81613e71565b9050919050565b7f45434453413a20696e76616c6964207369676e6174757265202773272076616c60008201527f7565000000000000000000000000000000000000000000000000000000000000602082015250565b6000613f10602283612a64565b9150613f1b82613eb4565b604082019050919050565b60006020820190508181036000830152613f3f81613f03565b9050919050565b7f414c52454144595f4d494e544544000000000000000000000000000000000000600082015250565b6000613f7c600e83612a64565b9150613f8782613f46565b602082019050919050565b60006020820190508181036000830152613fab81613f6f565b9050919050565b613fbb816136eb565b82525050565b6000608082019050613fd66000830187612c40565b613fe36020830186613fb2565b613ff06040830185612c40565b613ffd6060830184612c40565b9594505050505056fea26469706673582212209558048902577f302de757bf6fdf3eed6f21b4ca90ed771386676c608294194264736f6c63430008110033",
  "devdoc": {
    "kind": "dev",
    "methods": {
      "owner()": {
        "details": "Returns the address of the current owner."
      },
      "renounceOwnership()": {
        "details": "Leaves the contract without owner. It will not be possible to call `onlyOwner` functions. Can only be called by the current owner. NOTE: Renouncing ownership will leave the contract without an owner, thereby disabling any functionality that is only available to the owner."
      },
      "supportsInterface(bytes4)": {
        "details": "See {IERC165-supportsInterface}."
      },
      "tokenByIndex(uint256)": {
        "details": "See {IERC721Enumerable-tokenByIndex}."
      },
      "tokenOfOwnerByIndex(address,uint256)": {
        "details": "See {IERC721Enumerable-tokenOfOwnerByIndex}."
      },
      "totalSupply()": {
        "details": "See {IERC721Enumerable-totalSupply}."
      },
      "transferOwnership(address)": {
        "details": "Transfers ownership of the contract to a new account (`newOwner`). Can only be called by the current owner."
      }
    },
    "version": 1
  },
  "userdoc": {
    "kind": "user",
    "methods": {},
    "version": 1
  },
  "storageLayout": {
    "storage": [
      {
        "astId": 138,
        "contract": "contracts/MyNFT.sol:MyNFT",
        "label": "_initialized",
        "offset": 0,
        "slot": "0",
        "type": "t_uint8"
      },
      {
        "astId": 141,
        "contract": "contracts/MyNFT.sol:MyNFT",
        "label": "_initializing",
        "offset": 1,
        "slot": "0",
        "type": "t_bool"
      },
      {
        "astId": 3032,
        "contract": "contracts/MyNFT.sol:MyNFT",
        "label": "name",
        "offset": 0,
        "slot": "1",
        "type": "t_string_storage"
      },
      {
        "astId": 3034,
        "contract": "contracts/MyNFT.sol:MyNFT",
        "label": "symbol",
        "offset": 0,
        "slot": "2",
        "type": "t_string_storage"
      },
      {
        "astId": 3038,
        "contract": "contracts/MyNFT.sol:MyNFT",
        "label": "ownerOf",
        "offset": 0,
        "slot": "3",
        "type": "t_mapping(t_uint256,t_address)"
      },
      {
        "astId": 3042,
        "contract": "contracts/MyNFT.sol:MyNFT",
        "label": "balanceOf",
        "offset": 0,
        "slot": "4",
        "type": "t_mapping(t_address,t_uint256)"
      },
      {
        "astId": 3046,
        "contract": "contracts/MyNFT.sol:MyNFT",
        "label": "getApproved",
        "offset": 0,
        "slot": "5",
        "type": "t_mapping(t_uint256,t_address)"
      },
      {
        "astId": 3052,
        "contract": "contracts/MyNFT.sol:MyNFT",
        "label": "isApprovedForAll",
        "offset": 0,
        "slot": "6",
        "type": "t_mapping(t_address,t_mapping(t_address,t_bool))"
      },
      {
        "astId": 2696,
        "contract": "contracts/MyNFT.sol:MyNFT",
        "label": "_ownedTokens",
        "offset": 0,
        "slot": "7",
        "type": "t_mapping(t_address,t_mapping(t_uint256,t_uint256))"
      },
      {
        "astId": 2700,
        "contract": "contracts/MyNFT.sol:MyNFT",
        "label": "_ownedTokensIndex",
        "offset": 0,
        "slot": "8",
        "type": "t_mapping(t_uint256,t_uint256)"
      },
      {
        "astId": 2703,
        "contract": "contracts/MyNFT.sol:MyNFT",
        "label": "_allTokens",
        "offset": 0,
        "slot": "9",
        "type": "t_array(t_uint256)dyn_storage"
      },
      {
        "astId": 2707,
        "contract": "contracts/MyNFT.sol:MyNFT",
        "label": "_allTokensIndex",
        "offset": 0,
        "slot": "10",
        "type": "t_mapping(t_uint256,t_uint256)"
      },
      {
        "astId": 3016,
        "contract": "contracts/MyNFT.sol:MyNFT",
        "label": "__gap",
        "offset": 0,
        "slot": "11",
        "type": "t_array(t_uint256)46_storage"
      },
      {
        "astId": 2542,
        "contract": "contracts/MyNFT.sol:MyNFT",
        "label": "isValidSigner",
        "offset": 0,
        "slot": "57",
        "type": "t_mapping(t_address,t_bool)"
      },
      {
        "astId": 818,
        "contract": "contracts/MyNFT.sol:MyNFT",
        "label": "__gap",
        "offset": 0,
        "slot": "58",
        "type": "t_array(t_uint256)50_storage"
      },
      {
        "astId": 10,
        "contract": "contracts/MyNFT.sol:MyNFT",
        "label": "_owner",
        "offset": 0,
        "slot": "108",
        "type": "t_address"
      },
      {
        "astId": 130,
        "contract": "contracts/MyNFT.sol:MyNFT",
        "label": "__gap",
        "offset": 0,
        "slot": "109",
        "type": "t_array(t_uint256)49_storage"
      },
      {
        "astId": 2429,
        "contract": "contracts/MyNFT.sol:MyNFT",
        "label": "nextTokenId",
        "offset": 0,
        "slot": "158",
        "type": "t_uint256"
      }
    ],
    "types": {
      "t_address": {
        "encoding": "inplace",
        "label": "address",
        "numberOfBytes": "20"
      },
      "t_array(t_uint256)46_storage": {
        "base": "t_uint256",
        "encoding": "inplace",
        "label": "uint256[46]",
        "numberOfBytes": "1472"
      },
      "t_array(t_uint256)49_storage": {
        "base": "t_uint256",
        "encoding": "inplace",
        "label": "uint256[49]",
        "numberOfBytes": "1568"
      },
      "t_array(t_uint256)50_storage": {
        "base": "t_uint256",
        "encoding": "inplace",
        "label": "uint256[50]",
        "numberOfBytes": "1600"
      },
      "t_array(t_uint256)dyn_storage": {
        "base": "t_uint256",
        "encoding": "dynamic_array",
        "label": "uint256[]",
        "numberOfBytes": "32"
      },
      "t_bool": {
        "encoding": "inplace",
        "label": "bool",
        "numberOfBytes": "1"
      },
      "t_mapping(t_address,t_bool)": {
        "encoding": "mapping",
        "key": "t_address",
        "label": "mapping(address => bool)",
        "numberOfBytes": "32",
        "value": "t_bool"
      },
      "t_mapping(t_address,t_mapping(t_address,t_bool))": {
        "encoding": "mapping",
        "key": "t_address",
        "label": "mapping(address => mapping(address => bool))",
        "numberOfBytes": "32",
        "value": "t_mapping(t_address,t_bool)"
      },
      "t_mapping(t_address,t_mapping(t_uint256,t_uint256))": {
        "encoding": "mapping",
        "key": "t_address",
        "label": "mapping(address => mapping(uint256 => uint256))",
        "numberOfBytes": "32",
        "value": "t_mapping(t_uint256,t_uint256)"
      },
      "t_mapping(t_address,t_uint256)": {
        "encoding": "mapping",
        "key": "t_address",
        "label": "mapping(address => uint256)",
        "numberOfBytes": "32",
        "value": "t_uint256"
      },
      "t_mapping(t_uint256,t_address)": {
        "encoding": "mapping",
        "key": "t_uint256",
        "label": "mapping(uint256 => address)",
        "numberOfBytes": "32",
        "value": "t_address"
      },
      "t_mapping(t_uint256,t_uint256)": {
        "encoding": "mapping",
        "key": "t_uint256",
        "label": "mapping(uint256 => uint256)",
        "numberOfBytes": "32",
        "value": "t_uint256"
      },
      "t_string_storage": {
        "encoding": "bytes",
        "label": "string",
        "numberOfBytes": "32"
      },
      "t_uint256": {
        "encoding": "inplace",
        "label": "uint256",
        "numberOfBytes": "32"
      },
      "t_uint8": {
        "encoding": "inplace",
        "label": "uint8",
        "numberOfBytes": "1"
      }
    }
  }
}